{
  "address": "0x1396C01452cf7b1C14B2D82e2d84eB2c29d55a5b",
  "abi": [
    {
      "inputs": [],
      "stateMutability": "nonpayable",
      "type": "constructor"
    },
    {
      "inputs": [],
      "name": "NotManager",
      "type": "error"
    },
    {
      "anonymous": false,
      "inputs": [
        {
          "indexed": false,
          "internalType": "address",
          "name": "previousAdmin",
          "type": "address"
        },
        {
          "indexed": false,
          "internalType": "address",
          "name": "newAdmin",
          "type": "address"
        }
      ],
      "name": "AdminChanged",
      "type": "event"
    },
    {
      "anonymous": false,
      "inputs": [
        {
          "indexed": true,
          "internalType": "address",
          "name": "beacon",
          "type": "address"
        }
      ],
      "name": "BeaconUpgraded",
      "type": "event"
    },
    {
      "anonymous": false,
      "inputs": [
        {
          "indexed": false,
          "internalType": "uint8",
          "name": "version",
          "type": "uint8"
        }
      ],
      "name": "Initialized",
      "type": "event"
    },
    {
      "anonymous": false,
      "inputs": [
        {
          "indexed": false,
          "internalType": "address",
          "name": "account",
          "type": "address"
        }
      ],
      "name": "Paused",
      "type": "event"
    },
    {
      "anonymous": false,
      "inputs": [
        {
          "indexed": true,
          "internalType": "bytes32",
          "name": "role",
          "type": "bytes32"
        },
        {
          "indexed": true,
          "internalType": "bytes32",
          "name": "previousAdminRole",
          "type": "bytes32"
        },
        {
          "indexed": true,
          "internalType": "bytes32",
          "name": "newAdminRole",
          "type": "bytes32"
        }
      ],
      "name": "RoleAdminChanged",
      "type": "event"
    },
    {
      "anonymous": false,
      "inputs": [
        {
          "indexed": true,
          "internalType": "bytes32",
          "name": "role",
          "type": "bytes32"
        },
        {
          "indexed": true,
          "internalType": "address",
          "name": "account",
          "type": "address"
        },
        {
          "indexed": true,
          "internalType": "address",
          "name": "sender",
          "type": "address"
        }
      ],
      "name": "RoleGranted",
      "type": "event"
    },
    {
      "anonymous": false,
      "inputs": [
        {
          "indexed": true,
          "internalType": "bytes32",
          "name": "role",
          "type": "bytes32"
        },
        {
          "indexed": true,
          "internalType": "address",
          "name": "account",
          "type": "address"
        },
        {
          "indexed": true,
          "internalType": "address",
          "name": "sender",
          "type": "address"
        }
      ],
      "name": "RoleRevoked",
      "type": "event"
    },
    {
      "anonymous": false,
      "inputs": [
        {
          "indexed": false,
          "internalType": "address",
          "name": "account",
          "type": "address"
        }
      ],
      "name": "Unpaused",
      "type": "event"
    },
    {
      "anonymous": false,
      "inputs": [
        {
          "indexed": true,
          "internalType": "address",
          "name": "implementation",
          "type": "address"
        }
      ],
      "name": "Upgraded",
      "type": "event"
    },
    {
      "inputs": [],
      "name": "DEFAULT_ADMIN_ROLE",
      "outputs": [
        {
          "internalType": "bytes32",
          "name": "",
          "type": "bytes32"
        }
      ],
      "stateMutability": "view",
      "type": "function"
    },
    {
      "inputs": [],
      "name": "MANAGER_ROLE",
      "outputs": [
        {
          "internalType": "bytes32",
          "name": "",
          "type": "bytes32"
        }
      ],
      "stateMutability": "view",
      "type": "function"
    },
    {
      "inputs": [],
      "name": "bonusPeriod",
      "outputs": [
        {
          "internalType": "uint256",
          "name": "",
          "type": "uint256"
        }
      ],
      "stateMutability": "view",
      "type": "function"
    },
    {
      "inputs": [
        {
          "internalType": "uint256",
          "name": "id",
          "type": "uint256"
        }
      ],
      "name": "claim",
      "outputs": [],
      "stateMutability": "nonpayable",
      "type": "function"
    },
    {
      "inputs": [
        {
          "internalType": "uint256",
          "name": "amount",
          "type": "uint256"
        }
      ],
      "name": "deposit",
      "outputs": [],
      "stateMutability": "nonpayable",
      "type": "function"
    },
    {
      "inputs": [],
      "name": "destToken",
      "outputs": [
        {
          "internalType": "contract IERC20",
          "name": "",
          "type": "address"
        }
      ],
      "stateMutability": "view",
      "type": "function"
    },
    {
      "inputs": [],
      "name": "exchangeRatio",
      "outputs": [
        {
          "internalType": "uint256",
          "name": "",
          "type": "uint256"
        }
      ],
      "stateMutability": "view",
      "type": "function"
    },
    {
      "inputs": [
        {
          "internalType": "bytes32",
          "name": "role",
          "type": "bytes32"
        }
      ],
      "name": "getRoleAdmin",
      "outputs": [
        {
          "internalType": "bytes32",
          "name": "",
          "type": "bytes32"
        }
      ],
      "stateMutability": "view",
      "type": "function"
    },
    {
      "inputs": [
        {
          "internalType": "bytes32",
          "name": "role",
          "type": "bytes32"
        },
        {
          "internalType": "address",
          "name": "account",
          "type": "address"
        }
      ],
      "name": "grantRole",
      "outputs": [],
      "stateMutability": "nonpayable",
      "type": "function"
    },
    {
      "inputs": [
        {
          "internalType": "bytes32",
          "name": "role",
          "type": "bytes32"
        },
        {
          "internalType": "address",
          "name": "account",
          "type": "address"
        }
      ],
      "name": "hasRole",
      "outputs": [
        {
          "internalType": "bool",
          "name": "",
          "type": "bool"
        }
      ],
      "stateMutability": "view",
      "type": "function"
    },
    {
      "inputs": [
        {
          "internalType": "contract IERC20",
          "name": "_src",
          "type": "address"
        },
        {
          "internalType": "contract IERC20",
          "name": "_dest",
          "type": "address"
        },
        {
          "internalType": "uint256",
          "name": "_exchangeRatio",
          "type": "uint256"
        },
        {
          "internalType": "uint256",
          "name": "_maturity",
          "type": "uint256"
        },
        {
          "internalType": "uint256",
          "name": "_bonusPeriod",
          "type": "uint256"
        },
        {
          "internalType": "uint256",
          "name": "_minDeposit",
          "type": "uint256"
        },
        {
          "internalType": "address",
          "name": "manager",
          "type": "address"
        }
      ],
      "name": "initialize",
      "outputs": [],
      "stateMutability": "nonpayable",
      "type": "function"
    },
    {
      "inputs": [],
      "name": "maturity",
      "outputs": [
        {
          "internalType": "uint256",
          "name": "",
          "type": "uint256"
        }
      ],
      "stateMutability": "view",
      "type": "function"
    },
    {
      "inputs": [],
      "name": "minDeposit",
      "outputs": [
        {
          "internalType": "uint256",
          "name": "",
          "type": "uint256"
        }
      ],
      "stateMutability": "view",
      "type": "function"
    },
    {
      "inputs": [
        {
          "internalType": "address",
          "name": "user",
          "type": "address"
        }
      ],
      "name": "nextVaultId",
      "outputs": [
        {
          "internalType": "uint256",
          "name": "id",
          "type": "uint256"
        }
      ],
      "stateMutability": "view",
      "type": "function"
    },
    {
      "inputs": [],
      "name": "pause",
      "outputs": [],
      "stateMutability": "nonpayable",
      "type": "function"
    },
    {
      "inputs": [],
      "name": "paused",
      "outputs": [
        {
          "internalType": "bool",
          "name": "",
          "type": "bool"
        }
      ],
      "stateMutability": "view",
      "type": "function"
    },
    {
      "inputs": [],
      "name": "proxiableUUID",
      "outputs": [
        {
          "internalType": "bytes32",
          "name": "",
          "type": "bytes32"
        }
      ],
      "stateMutability": "view",
      "type": "function"
    },
    {
      "inputs": [
        {
          "internalType": "bytes32",
          "name": "role",
          "type": "bytes32"
        },
        {
          "internalType": "address",
          "name": "account",
          "type": "address"
        }
      ],
      "name": "renounceRole",
      "outputs": [],
      "stateMutability": "nonpayable",
      "type": "function"
    },
    {
      "inputs": [
        {
          "internalType": "bytes32",
          "name": "role",
          "type": "bytes32"
        },
        {
          "internalType": "address",
          "name": "account",
          "type": "address"
        }
      ],
      "name": "revokeRole",
      "outputs": [],
      "stateMutability": "nonpayable",
      "type": "function"
    },
    {
      "inputs": [],
      "name": "srcToken",
      "outputs": [
        {
          "internalType": "contract IERC20",
          "name": "",
          "type": "address"
        }
      ],
      "stateMutability": "view",
      "type": "function"
    },
    {
      "inputs": [
        {
          "internalType": "bytes4",
          "name": "interfaceId",
          "type": "bytes4"
        }
      ],
      "name": "supportsInterface",
      "outputs": [
        {
          "internalType": "bool",
          "name": "",
          "type": "bool"
        }
      ],
      "stateMutability": "view",
      "type": "function"
    },
    {
      "inputs": [],
      "name": "unpause",
      "outputs": [],
      "stateMutability": "nonpayable",
      "type": "function"
    },
    {
      "inputs": [
        {
          "internalType": "address",
          "name": "newImplementation",
          "type": "address"
        }
      ],
      "name": "upgradeTo",
      "outputs": [],
      "stateMutability": "nonpayable",
      "type": "function"
    },
    {
      "inputs": [
        {
          "internalType": "address",
          "name": "newImplementation",
          "type": "address"
        },
        {
          "internalType": "bytes",
          "name": "data",
          "type": "bytes"
        }
      ],
      "name": "upgradeToAndCall",
      "outputs": [],
      "stateMutability": "payable",
      "type": "function"
    },
    {
      "inputs": [
        {
          "internalType": "address",
          "name": "user",
          "type": "address"
        },
        {
          "internalType": "uint256",
          "name": "id",
          "type": "uint256"
        }
      ],
      "name": "vaults",
      "outputs": [
        {
          "internalType": "uint256",
          "name": "amount",
          "type": "uint256"
        },
        {
          "internalType": "uint256",
          "name": "depositTs",
          "type": "uint256"
        },
        {
          "internalType": "bool",
          "name": "active",
          "type": "bool"
        }
      ],
      "stateMutability": "view",
      "type": "function"
    }
  ],
  "transactionHash": "0x2341a3863dadb91416b604627126e7eea327410bfe75c07fb051bd0460272635",
  "args": [],
  "numDeployments": 1,
  "solcInputHash": "81fa95d3906c0914483bc996faa67cb4",
  "bytecode": "0x60a06040523073ffffffffffffffffffffffffffffffffffffffff1660809073ffffffffffffffffffffffffffffffffffffffff168152503480156200004457600080fd5b50620000556200005b60201b60201c565b62000205565b600060019054906101000a900460ff1615620000ae576040517f08c379a0000000000000000000000000000000000000000000000000000000008152600401620000a590620001a8565b60405180910390fd5b60ff801660008054906101000a900460ff1660ff16146200011f5760ff6000806101000a81548160ff021916908360ff1602179055507f7f26b83ff96e1f2b6a682f133852f6798a09c465da95921460cefb384740249860ff604051620001169190620001e8565b60405180910390a15b565b600082825260208201905092915050565b7f496e697469616c697a61626c653a20636f6e747261637420697320696e69746960008201527f616c697a696e6700000000000000000000000000000000000000000000000000602082015250565b60006200019060278362000121565b91506200019d8262000132565b604082019050919050565b60006020820190508181036000830152620001c38162000181565b9050919050565b600060ff82169050919050565b620001e281620001ca565b82525050565b6000602082019050620001ff6000830184620001d7565b92915050565b6080516139e06200023d60003960008181610739015281816107c701528181610d4701528181610dd50152610e8501526139e06000f3fe6080604052600436106101665760003560e01c80634af4a127116100d157806383a5041c1161008a578063a217fddf11610064578063a217fddf1461050d578063b6b55f2514610538578063d547741f14610561578063ec87621c1461058a57610166565b806383a5041c146104905780638456cb59146104b957806391d14854146104d057610166565b80634af4a127146103895780634f1ef286146103b457806352d1902d146103d05780635c975abb146103fb5780637bbfc69e146104265780637cf8ed0d1461046557610166565b806336568abe1161012357806336568abe146102a15780633659cfe6146102ca578063379607f5146102f35780633f4ba83a1461031c5780634006ccc51461033357806341b3d1851461035e57610166565b806301ffc9a71461016b578063204f83f9146101a85780632168083f146101d35780632371007b146101fe578063248a9ca31461023b5780632f2ff15d14610278575b600080fd5b34801561017757600080fd5b50610192600480360381019061018d9190612568565b6105b5565b60405161019f91906125b0565b60405180910390f35b3480156101b457600080fd5b506101bd61062f565b6040516101ca91906125e4565b60405180910390f35b3480156101df57600080fd5b506101e8610635565b6040516101f5919061267e565b60405180910390f35b34801561020a57600080fd5b50610225600480360381019061022091906126d7565b61065b565b60405161023291906125e4565b60405180910390f35b34801561024757600080fd5b50610262600480360381019061025d919061273a565b610673565b60405161026f9190612776565b60405180910390f35b34801561028457600080fd5b5061029f600480360381019061029a9190612791565b610693565b005b3480156102ad57600080fd5b506102c860048036038101906102c39190612791565b6106b4565b005b3480156102d657600080fd5b506102f160048036038101906102ec91906126d7565b610737565b005b3480156102ff57600080fd5b5061031a600480360381019061031591906127fd565b6108bf565b005b34801561032857600080fd5b50610331610cbf565b005b34801561033f57600080fd5b50610348610d33565b60405161035591906125e4565b60405180910390f35b34801561036a57600080fd5b50610373610d39565b60405161038091906125e4565b60405180910390f35b34801561039557600080fd5b5061039e610d3f565b6040516103ab91906125e4565b60405180910390f35b6103ce60048036038101906103c99190612970565b610d45565b005b3480156103dc57600080fd5b506103e5610e81565b6040516103f29190612776565b60405180910390f35b34801561040757600080fd5b50610410610f3a565b60405161041d91906125b0565b60405180910390f35b34801561043257600080fd5b5061044d600480360381019061044891906129cc565b610f51565b60405161045c93929190612a0c565b60405180910390f35b34801561047157600080fd5b5061047a610f95565b604051610487919061267e565b60405180910390f35b34801561049c57600080fd5b506104b760048036038101906104b29190612a81565b610fbb565b005b3480156104c557600080fd5b506104ce6111a8565b005b3480156104dc57600080fd5b506104f760048036038101906104f29190612791565b61121c565b60405161050491906125b0565b60405180910390f35b34801561051957600080fd5b50610522611287565b60405161052f9190612776565b60405180910390f35b34801561054457600080fd5b5061055f600480360381019061055a91906127fd565b61128e565b005b34801561056d57600080fd5b5061058860048036038101906105839190612791565b61147b565b005b34801561059657600080fd5b5061059f61149c565b6040516105ac9190612776565b60405180910390f35b60007f7965db0b000000000000000000000000000000000000000000000000000000007bffffffffffffffffffffffffffffffffffffffffffffffffffffffff1916827bffffffffffffffffffffffffffffffffffffffffffffffffffffffff191614806106285750610627826114c3565b5b9050919050565b60cc5481565b60ca60009054906101000a900473ffffffffffffffffffffffffffffffffffffffff1681565b60d06020528060005260406000206000915090505481565b600060656000838152602001908152602001600020600101549050919050565b61069c82610673565b6106a58161152d565b6106af8383611541565b505050565b6106bc611622565b73ffffffffffffffffffffffffffffffffffffffff168173ffffffffffffffffffffffffffffffffffffffff1614610729576040517f08c379a000000000000000000000000000000000000000000000000000000000815260040161072090612ba6565b60405180910390fd5b610733828261162a565b5050565b7f000000000000000000000000000000000000000000000000000000000000000073ffffffffffffffffffffffffffffffffffffffff163073ffffffffffffffffffffffffffffffffffffffff16036107c5576040517f08c379a00000000000000000000000000000000000000000000000000000000081526004016107bc90612c38565b60405180910390fd5b7f000000000000000000000000000000000000000000000000000000000000000073ffffffffffffffffffffffffffffffffffffffff1661080461170c565b73ffffffffffffffffffffffffffffffffffffffff161461085a576040517f08c379a000000000000000000000000000000000000000000000000000000000815260040161085190612cca565b60405180910390fd5b61086381611763565b6108bc81600067ffffffffffffffff81111561088257610881612845565b5b6040519080825280601f01601f1916602001820160405280156108b45781602001600182028036833780820191505090505b5060006117d0565b50565b6108c761193e565b60006108d1611622565b905060d060008273ffffffffffffffffffffffffffffffffffffffff1673ffffffffffffffffffffffffffffffffffffffff168152602001908152602001600020548210610954576040517f08c379a000000000000000000000000000000000000000000000000000000000815260040161094b90612d36565b60405180910390fd5b600060cf60008373ffffffffffffffffffffffffffffffffffffffff1673ffffffffffffffffffffffffffffffffffffffff168152602001908152602001600020600084815260200190815260200160002060405180606001604052908160008201548152602001600182015481526020016002820160009054906101000a900460ff16151515158152505090508060400151610a26576040517f08c379a0000000000000000000000000000000000000000000000000000000008152600401610a1d90612da2565b60405180910390fd5b60008060008360200151905060008142610a409190612df1565b905060cc5482610a509190612e25565b4211610ab257600060cc54828760000151610a6b9190612e59565b610a759190612eca565b9050670de0b6b3a764000060cb5482610a8e9190612e59565b610a989190612eca565b9350808660000151610aaa9190612df1565b945050610b9e565b60cd5460cc5483610ac39190612e25565b610acd9190612e25565b4211610b4857600060cc548342610ae49190612df1565b610aee9190612df1565b9050600060cc548260cc54610b039190612e25565b8860000151610b129190612e59565b610b1c9190612eca565b9050670de0b6b3a764000060cb5482610b359190612e59565b610b3f9190612eca565b94505050610b9d565b600060cc5460cd5460cc54610b5d9190612e25565b8760000151610b6c9190612e59565b610b769190612eca565b9050670de0b6b3a764000060cb5482610b8f9190612e59565b610b999190612eca565b9350505b5b600060cf60008873ffffffffffffffffffffffffffffffffffffffff1673ffffffffffffffffffffffffffffffffffffffff168152602001908152602001600020600089815260200190815260200160002060020160006101000a81548160ff02191690831515021790555060008414610c6057610c5f868560c960009054906101000a900473ffffffffffffffffffffffffffffffffffffffff1673ffffffffffffffffffffffffffffffffffffffff166119889092919063ffffffff16565b5b60008314610cb657610cb5868460ca60009054906101000a900473ffffffffffffffffffffffffffffffffffffffff1673ffffffffffffffffffffffffffffffffffffffff166119889092919063ffffffff16565b5b50505050505050565b610cf37f241ecf16d79d0f8dbfb92cbc07fe17840425976cf0667f022fe9877caa831b0860001b610cee611622565b61121c565b610d29576040517fc0fc8a8a00000000000000000000000000000000000000000000000000000000815260040160405180910390fd5b610d31611a0e565b565b60cb5481565b60ce5481565b60cd5481565b7f000000000000000000000000000000000000000000000000000000000000000073ffffffffffffffffffffffffffffffffffffffff163073ffffffffffffffffffffffffffffffffffffffff1603610dd3576040517f08c379a0000000000000000000000000000000000000000000000000000000008152600401610dca90612c38565b60405180910390fd5b7f000000000000000000000000000000000000000000000000000000000000000073ffffffffffffffffffffffffffffffffffffffff16610e1261170c565b73ffffffffffffffffffffffffffffffffffffffff1614610e68576040517f08c379a0000000000000000000000000000000000000000000000000000000008152600401610e5f90612cca565b60405180910390fd5b610e7182611763565b610e7d828260016117d0565b5050565b60007f000000000000000000000000000000000000000000000000000000000000000073ffffffffffffffffffffffffffffffffffffffff163073ffffffffffffffffffffffffffffffffffffffff1614610f11576040517f08c379a0000000000000000000000000000000000000000000000000000000008152600401610f0890612f6d565b60405180910390fd5b7f360894a13ba1a3210667c828492db98dca3e2076cc3735a920a3ca505d382bbc60001b905090565b6000609760009054906101000a900460ff16905090565b60cf602052816000526040600020602052806000526040600020600091509150508060000154908060010154908060020160009054906101000a900460ff16905083565b60c960009054906101000a900473ffffffffffffffffffffffffffffffffffffffff1681565b60008060019054906101000a900460ff16159050808015610fec5750600160008054906101000a900460ff1660ff16105b806110195750610ffb30611a71565b1580156110185750600160008054906101000a900460ff1660ff16145b5b611058576040517f08c379a000000000000000000000000000000000000000000000000000000000815260040161104f90612fff565b60405180910390fd5b60016000806101000a81548160ff021916908360ff1602179055508015611095576001600060016101000a81548160ff0219169083151502179055505b61109e82611a94565b6110a782611b03565b8760c960006101000a81548173ffffffffffffffffffffffffffffffffffffffff021916908373ffffffffffffffffffffffffffffffffffffffff1602179055508660ca60006101000a81548173ffffffffffffffffffffffffffffffffffffffff021916908373ffffffffffffffffffffffffffffffffffffffff1602179055508560cb819055508460cc819055508360cd819055508260ce81905550801561119e5760008060016101000a81548160ff0219169083151502179055507f7f26b83ff96e1f2b6a682f133852f6798a09c465da95921460cefb384740249860016040516111959190613067565b60405180910390a15b5050505050505050565b6111dc7f241ecf16d79d0f8dbfb92cbc07fe17840425976cf0667f022fe9877caa831b0860001b6111d7611622565b61121c565b611212576040517fc0fc8a8a00000000000000000000000000000000000000000000000000000000815260040160405180910390fd5b61121a611b33565b565b60006065600084815260200190815260200160002060000160008373ffffffffffffffffffffffffffffffffffffffff1673ffffffffffffffffffffffffffffffffffffffff16815260200190815260200160002060009054906101000a900460ff16905092915050565b6000801b81565b61129661193e565b60ce548110156112db576040517f08c379a00000000000000000000000000000000000000000000000000000000081526004016112d2906130ce565b60405180910390fd5b60006112e5611622565b9050600060d060008373ffffffffffffffffffffffffffffffffffffffff1673ffffffffffffffffffffffffffffffffffffffff16815260200190815260200160002054905061137a82308560c960009054906101000a900473ffffffffffffffffffffffffffffffffffffffff1673ffffffffffffffffffffffffffffffffffffffff16611b96909392919063ffffffff16565b60405180606001604052808481526020014281526020016001151581525060cf60008473ffffffffffffffffffffffffffffffffffffffff1673ffffffffffffffffffffffffffffffffffffffff1681526020019081526020016000206000838152602001908152602001600020600082015181600001556020820151816001015560408201518160020160006101000a81548160ff021916908315150217905550905050600160d060008473ffffffffffffffffffffffffffffffffffffffff1673ffffffffffffffffffffffffffffffffffffffff168152602001908152602001600020600082825461146f9190612e25565b92505081905550505050565b61148482610673565b61148d8161152d565b611497838361162a565b505050565b7f241ecf16d79d0f8dbfb92cbc07fe17840425976cf0667f022fe9877caa831b0860001b81565b60007f01ffc9a7000000000000000000000000000000000000000000000000000000007bffffffffffffffffffffffffffffffffffffffffffffffffffffffff1916827bffffffffffffffffffffffffffffffffffffffffffffffffffffffff1916149050919050565b61153e81611539611622565b611c1f565b50565b61154b828261121c565b61161e5760016065600084815260200190815260200160002060000160008373ffffffffffffffffffffffffffffffffffffffff1673ffffffffffffffffffffffffffffffffffffffff16815260200190815260200160002060006101000a81548160ff0219169083151502179055506115c3611622565b73ffffffffffffffffffffffffffffffffffffffff168173ffffffffffffffffffffffffffffffffffffffff16837f2f8788117e7eff1d82e926ec794901d17c78024a50270940304540a733656f0d60405160405180910390a45b5050565b600033905090565b611634828261121c565b156117085760006065600084815260200190815260200160002060000160008373ffffffffffffffffffffffffffffffffffffffff1673ffffffffffffffffffffffffffffffffffffffff16815260200190815260200160002060006101000a81548160ff0219169083151502179055506116ad611622565b73ffffffffffffffffffffffffffffffffffffffff168173ffffffffffffffffffffffffffffffffffffffff16837ff6391f5c32d9c69d2a47ea670b442974b53935d1edc7fd64eb21e047a839171b60405160405180910390a45b5050565b600061173a7f360894a13ba1a3210667c828492db98dca3e2076cc3735a920a3ca505d382bbc60001b611ca4565b60000160009054906101000a900473ffffffffffffffffffffffffffffffffffffffff16905090565b6117977f241ecf16d79d0f8dbfb92cbc07fe17840425976cf0667f022fe9877caa831b0860001b611792611622565b61121c565b6117cd576040517fc0fc8a8a00000000000000000000000000000000000000000000000000000000815260040160405180910390fd5b50565b6117fc7f4910fdfa16fed3260ed0e7147f7cc6da11a60208b5b9406d12a635614ffd914360001b611cae565b60000160009054906101000a900460ff16156118205761181b83611cb8565b611939565b8273ffffffffffffffffffffffffffffffffffffffff166352d1902d6040518163ffffffff1660e01b8152600401602060405180830381865afa92505050801561188857506040513d601f19601f820116820180604052508101906118859190613103565b60015b6118c7576040517f08c379a00000000000000000000000000000000000000000000000000000000081526004016118be906131a2565b60405180910390fd5b7f360894a13ba1a3210667c828492db98dca3e2076cc3735a920a3ca505d382bbc60001b811461192c576040517f08c379a000000000000000000000000000000000000000000000000000000000815260040161192390613234565b60405180910390fd5b50611938838383611d71565b5b505050565b611946610f3a565b15611986576040517f08c379a000000000000000000000000000000000000000000000000000000000815260040161197d906132a0565b60405180910390fd5b565b611a098363a9059cbb60e01b84846040516024016119a79291906132cf565b604051602081830303815290604052907bffffffffffffffffffffffffffffffffffffffffffffffffffffffff19166020820180517bffffffffffffffffffffffffffffffffffffffffffffffffffffffff8381831617835250505050611d9d565b505050565b611a16611e65565b6000609760006101000a81548160ff0219169083151502179055507f5db9ee0a495bf2e6ff9c91a7834c1ba4fdd244a5e8aa4e537bd38aeae4b073aa611a5a611622565b604051611a6791906132f8565b60405180910390a1565b6000808273ffffffffffffffffffffffffffffffffffffffff163b119050919050565b600060019054906101000a900460ff16611ae3576040517f08c379a0000000000000000000000000000000000000000000000000000000008152600401611ada90613385565b60405180910390fd5b611aeb611eae565b611af3611eff565b611b006000801b82611541565b50565b611b307f241ecf16d79d0f8dbfb92cbc07fe17840425976cf0667f022fe9877caa831b0860001b82611541565b50565b611b3b61193e565b6001609760006101000a81548160ff0219169083151502179055507f62e78cea01bee320cd4e420270b5ea74000d11b0c9f74754ebdbfc544b05a258611b7f611622565b604051611b8c91906132f8565b60405180910390a1565b611c19846323b872dd60e01b858585604051602401611bb7939291906133a5565b604051602081830303815290604052907bffffffffffffffffffffffffffffffffffffffffffffffffffffffff19166020820180517bffffffffffffffffffffffffffffffffffffffffffffffffffffffff8381831617835250505050611d9d565b50505050565b611c29828261121c565b611ca057611c3681611f58565b611c448360001c6020611f85565b604051602001611c559291906134e5565b6040516020818303038152906040526040517f08c379a0000000000000000000000000000000000000000000000000000000008152600401611c979190613558565b60405180910390fd5b5050565b6000819050919050565b6000819050919050565b611cc1816121c1565b611d00576040517f08c379a0000000000000000000000000000000000000000000000000000000008152600401611cf7906135ec565b60405180910390fd5b80611d2d7f360894a13ba1a3210667c828492db98dca3e2076cc3735a920a3ca505d382bbc60001b611ca4565b60000160006101000a81548173ffffffffffffffffffffffffffffffffffffffff021916908373ffffffffffffffffffffffffffffffffffffffff16021790555050565b611d7a836121e4565b600082511180611d875750805b15611d9857611d968383612233565b505b505050565b6000611dff826040518060400160405280602081526020017f5361666545524332303a206c6f772d6c6576656c2063616c6c206661696c65648152508573ffffffffffffffffffffffffffffffffffffffff166122609092919063ffffffff16565b9050600081511480611e21575080806020019051810190611e209190613638565b5b611e60576040517f08c379a0000000000000000000000000000000000000000000000000000000008152600401611e57906136d7565b60405180910390fd5b505050565b611e6d610f3a565b611eac576040517f08c379a0000000000000000000000000000000000000000000000000000000008152600401611ea390613743565b60405180910390fd5b565b600060019054906101000a900460ff16611efd576040517f08c379a0000000000000000000000000000000000000000000000000000000008152600401611ef490613385565b60405180910390fd5b565b600060019054906101000a900460ff16611f4e576040517f08c379a0000000000000000000000000000000000000000000000000000000008152600401611f4590613385565b60405180910390fd5b611f56612278565b565b6060611f7e8273ffffffffffffffffffffffffffffffffffffffff16601460ff16611f85565b9050919050565b606060006002836002611f989190612e59565b611fa29190612e25565b67ffffffffffffffff811115611fbb57611fba612845565b5b6040519080825280601f01601f191660200182016040528015611fed5781602001600182028036833780820191505090505b5090507f30000000000000000000000000000000000000000000000000000000000000008160008151811061202557612024613763565b5b60200101907effffffffffffffffffffffffffffffffffffffffffffffffffffffffffffff1916908160001a9053507f78000000000000000000000000000000000000000000000000000000000000008160018151811061208957612088613763565b5b60200101907effffffffffffffffffffffffffffffffffffffffffffffffffffffffffffff1916908160001a905350600060018460026120c99190612e59565b6120d39190612e25565b90505b6001811115612173577f3031323334353637383961626364656600000000000000000000000000000000600f86166010811061211557612114613763565b5b1a60f81b82828151811061212c5761212b613763565b5b60200101907effffffffffffffffffffffffffffffffffffffffffffffffffffffffffffff1916908160001a905350600485901c94508061216c90613792565b90506120d6565b50600084146121b7576040517f08c379a00000000000000000000000000000000000000000000000000000000081526004016121ae90613807565b60405180910390fd5b8091505092915050565b6000808273ffffffffffffffffffffffffffffffffffffffff163b119050919050565b6121ed81611cb8565b8073ffffffffffffffffffffffffffffffffffffffff167fbc7cd75a20ee27fd9adebab32041f755214dbc6bffa90cc0225b39da2e5c2d3b60405160405180910390a250565b60606122588383604051806060016040528060278152602001613984602791396122e4565b905092915050565b606061226f848460008561236a565b90509392505050565b600060019054906101000a900460ff166122c7576040517f08c379a00000000000000000000000000000000000000000000000000000000081526004016122be90613385565b60405180910390fd5b6000609760006101000a81548160ff021916908315150217905550565b60606000808573ffffffffffffffffffffffffffffffffffffffff168560405161230e919061386e565b600060405180830381855af49150503d8060008114612349576040519150601f19603f3d011682016040523d82523d6000602084013e61234e565b606091505b509150915061235f86838387612437565b925050509392505050565b6060824710156123af576040517f08c379a00000000000000000000000000000000000000000000000000000000081526004016123a6906138f7565b60405180910390fd5b6000808673ffffffffffffffffffffffffffffffffffffffff1685876040516123d8919061386e565b60006040518083038185875af1925050503d8060008114612415576040519150601f19603f3d011682016040523d82523d6000602084013e61241a565b606091505b509150915061242b87838387612437565b92505050949350505050565b6060831561249957600083510361249157612451856121c1565b612490576040517f08c379a000000000000000000000000000000000000000000000000000000000815260040161248790613963565b60405180910390fd5b5b8290506124a4565b6124a383836124ac565b5b949350505050565b6000825111156124bf5781518083602001fd5b806040517f08c379a00000000000000000000000000000000000000000000000000000000081526004016124f39190613558565b60405180910390fd5b6000604051905090565b600080fd5b600080fd5b60007fffffffff0000000000000000000000000000000000000000000000000000000082169050919050565b61254581612510565b811461255057600080fd5b50565b6000813590506125628161253c565b92915050565b60006020828403121561257e5761257d612506565b5b600061258c84828501612553565b91505092915050565b60008115159050919050565b6125aa81612595565b82525050565b60006020820190506125c560008301846125a1565b92915050565b6000819050919050565b6125de816125cb565b82525050565b60006020820190506125f960008301846125d5565b92915050565b600073ffffffffffffffffffffffffffffffffffffffff82169050919050565b6000819050919050565b600061264461263f61263a846125ff565b61261f565b6125ff565b9050919050565b600061265682612629565b9050919050565b60006126688261264b565b9050919050565b6126788161265d565b82525050565b6000602082019050612693600083018461266f565b92915050565b60006126a4826125ff565b9050919050565b6126b481612699565b81146126bf57600080fd5b50565b6000813590506126d1816126ab565b92915050565b6000602082840312156126ed576126ec612506565b5b60006126fb848285016126c2565b91505092915050565b6000819050919050565b61271781612704565b811461272257600080fd5b50565b6000813590506127348161270e565b92915050565b6000602082840312156127505761274f612506565b5b600061275e84828501612725565b91505092915050565b61277081612704565b82525050565b600060208201905061278b6000830184612767565b92915050565b600080604083850312156127a8576127a7612506565b5b60006127b685828601612725565b92505060206127c7858286016126c2565b9150509250929050565b6127da816125cb565b81146127e557600080fd5b50565b6000813590506127f7816127d1565b92915050565b60006020828403121561281357612812612506565b5b6000612821848285016127e8565b91505092915050565b600080fd5b600080fd5b6000601f19601f8301169050919050565b7f4e487b7100000000000000000000000000000000000000000000000000000000600052604160045260246000fd5b61287d82612834565b810181811067ffffffffffffffff8211171561289c5761289b612845565b5b80604052505050565b60006128af6124fc565b90506128bb8282612874565b919050565b600067ffffffffffffffff8211156128db576128da612845565b5b6128e482612834565b9050602081019050919050565b82818337600083830152505050565b600061291361290e846128c0565b6128a5565b90508281526020810184848401111561292f5761292e61282f565b5b61293a8482856128f1565b509392505050565b600082601f8301126129575761295661282a565b5b8135612967848260208601612900565b91505092915050565b6000806040838503121561298757612986612506565b5b6000612995858286016126c2565b925050602083013567ffffffffffffffff8111156129b6576129b561250b565b5b6129c285828601612942565b9150509250929050565b600080604083850312156129e3576129e2612506565b5b60006129f1858286016126c2565b9250506020612a02858286016127e8565b9150509250929050565b6000606082019050612a2160008301866125d5565b612a2e60208301856125d5565b612a3b60408301846125a1565b949350505050565b6000612a4e82612699565b9050919050565b612a5e81612a43565b8114612a6957600080fd5b50565b600081359050612a7b81612a55565b92915050565b600080600080600080600060e0888a031215612aa057612a9f612506565b5b6000612aae8a828b01612a6c565b9750506020612abf8a828b01612a6c565b9650506040612ad08a828b016127e8565b9550506060612ae18a828b016127e8565b9450506080612af28a828b016127e8565b93505060a0612b038a828b016127e8565b92505060c0612b148a828b016126c2565b91505092959891949750929550565b600082825260208201905092915050565b7f416363657373436f6e74726f6c3a2063616e206f6e6c792072656e6f756e636560008201527f20726f6c657320666f722073656c660000000000000000000000000000000000602082015250565b6000612b90602f83612b23565b9150612b9b82612b34565b604082019050919050565b60006020820190508181036000830152612bbf81612b83565b9050919050565b7f46756e6374696f6e206d7573742062652063616c6c6564207468726f7567682060008201527f64656c656761746563616c6c0000000000000000000000000000000000000000602082015250565b6000612c22602c83612b23565b9150612c2d82612bc6565b604082019050919050565b60006020820190508181036000830152612c5181612c15565b9050919050565b7f46756e6374696f6e206d7573742062652063616c6c6564207468726f7567682060008201527f6163746976652070726f78790000000000000000000000000000000000000000602082015250565b6000612cb4602c83612b23565b9150612cbf82612c58565b604082019050919050565b60006020820190508181036000830152612ce381612ca7565b9050919050565b7f5661756c74204e6f7420466f756e640000000000000000000000000000000000600082015250565b6000612d20600f83612b23565b9150612d2b82612cea565b602082019050919050565b60006020820190508181036000830152612d4f81612d13565b9050919050565b7f5661756c7420416c726561647920436c61696d65640000000000000000000000600082015250565b6000612d8c601583612b23565b9150612d9782612d56565b602082019050919050565b60006020820190508181036000830152612dbb81612d7f565b9050919050565b7f4e487b7100000000000000000000000000000000000000000000000000000000600052601160045260246000fd5b6000612dfc826125cb565b9150612e07836125cb565b9250828203905081811115612e1f57612e1e612dc2565b5b92915050565b6000612e30826125cb565b9150612e3b836125cb565b9250828201905080821115612e5357612e52612dc2565b5b92915050565b6000612e64826125cb565b9150612e6f836125cb565b9250828202612e7d816125cb565b91508282048414831517612e9457612e93612dc2565b5b5092915050565b7f4e487b7100000000000000000000000000000000000000000000000000000000600052601260045260246000fd5b6000612ed5826125cb565b9150612ee0836125cb565b925082612ef057612eef612e9b565b5b828204905092915050565b7f555550535570677261646561626c653a206d757374206e6f742062652063616c60008201527f6c6564207468726f7567682064656c656761746563616c6c0000000000000000602082015250565b6000612f57603883612b23565b9150612f6282612efb565b604082019050919050565b60006020820190508181036000830152612f8681612f4a565b9050919050565b7f496e697469616c697a61626c653a20636f6e747261637420697320616c72656160008201527f647920696e697469616c697a6564000000000000000000000000000000000000602082015250565b6000612fe9602e83612b23565b9150612ff482612f8d565b604082019050919050565b6000602082019050818103600083015261301881612fdc565b9050919050565b6000819050919050565b600060ff82169050919050565b600061305161304c6130478461301f565b61261f565b613029565b9050919050565b61306181613036565b82525050565b600060208201905061307c6000830184613058565b92915050565b7f4c657373207468616e206d696e4465706f736974000000000000000000000000600082015250565b60006130b8601483612b23565b91506130c382613082565b602082019050919050565b600060208201905081810360008301526130e7816130ab565b9050919050565b6000815190506130fd8161270e565b92915050565b60006020828403121561311957613118612506565b5b6000613127848285016130ee565b91505092915050565b7f45524331393637557067726164653a206e657720696d706c656d656e7461746960008201527f6f6e206973206e6f742055555053000000000000000000000000000000000000602082015250565b600061318c602e83612b23565b915061319782613130565b604082019050919050565b600060208201905081810360008301526131bb8161317f565b9050919050565b7f45524331393637557067726164653a20756e737570706f727465642070726f7860008201527f6961626c65555549440000000000000000000000000000000000000000000000602082015250565b600061321e602983612b23565b9150613229826131c2565b604082019050919050565b6000602082019050818103600083015261324d81613211565b9050919050565b7f5061757361626c653a2070617573656400000000000000000000000000000000600082015250565b600061328a601083612b23565b915061329582613254565b602082019050919050565b600060208201905081810360008301526132b98161327d565b9050919050565b6132c981612699565b82525050565b60006040820190506132e460008301856132c0565b6132f160208301846125d5565b9392505050565b600060208201905061330d60008301846132c0565b92915050565b7f496e697469616c697a61626c653a20636f6e7472616374206973206e6f74206960008201527f6e697469616c697a696e67000000000000000000000000000000000000000000602082015250565b600061336f602b83612b23565b915061337a82613313565b604082019050919050565b6000602082019050818103600083015261339e81613362565b9050919050565b60006060820190506133ba60008301866132c0565b6133c760208301856132c0565b6133d460408301846125d5565b949350505050565b600081905092915050565b7f416363657373436f6e74726f6c3a206163636f756e7420000000000000000000600082015250565b600061341d6017836133dc565b9150613428826133e7565b601782019050919050565b600081519050919050565b60005b8381101561345c578082015181840152602081019050613441565b60008484015250505050565b600061347382613433565b61347d81856133dc565b935061348d81856020860161343e565b80840191505092915050565b7f206973206d697373696e6720726f6c6520000000000000000000000000000000600082015250565b60006134cf6011836133dc565b91506134da82613499565b601182019050919050565b60006134f082613410565b91506134fc8285613468565b9150613507826134c2565b91506135138284613468565b91508190509392505050565b600061352a82613433565b6135348185612b23565b935061354481856020860161343e565b61354d81612834565b840191505092915050565b60006020820190508181036000830152613572818461351f565b905092915050565b7f455243313936373a206e657720696d706c656d656e746174696f6e206973206e60008201527f6f74206120636f6e747261637400000000000000000000000000000000000000602082015250565b60006135d6602d83612b23565b91506135e18261357a565b604082019050919050565b60006020820190508181036000830152613605816135c9565b9050919050565b61361581612595565b811461362057600080fd5b50565b6000815190506136328161360c565b92915050565b60006020828403121561364e5761364d612506565b5b600061365c84828501613623565b91505092915050565b7f5361666545524332303a204552433230206f7065726174696f6e20646964206e60008201527f6f74207375636365656400000000000000000000000000000000000000000000602082015250565b60006136c1602a83612b23565b91506136cc82613665565b604082019050919050565b600060208201905081810360008301526136f0816136b4565b9050919050565b7f5061757361626c653a206e6f7420706175736564000000000000000000000000600082015250565b600061372d601483612b23565b9150613738826136f7565b602082019050919050565b6000602082019050818103600083015261375c81613720565b9050919050565b7f4e487b7100000000000000000000000000000000000000000000000000000000600052603260045260246000fd5b600061379d826125cb565b9150600082036137b0576137af612dc2565b5b600182039050919050565b7f537472696e67733a20686578206c656e67746820696e73756666696369656e74600082015250565b60006137f1602083612b23565b91506137fc826137bb565b602082019050919050565b60006020820190508181036000830152613820816137e4565b9050919050565b600081519050919050565b600081905092915050565b600061384882613827565b6138528185613832565b935061386281856020860161343e565b80840191505092915050565b600061387a828461383d565b915081905092915050565b7f416464726573733a20696e73756666696369656e742062616c616e636520666f60008201527f722063616c6c0000000000000000000000000000000000000000000000000000602082015250565b60006138e1602683612b23565b91506138ec82613885565b604082019050919050565b60006020820190508181036000830152613910816138d4565b9050919050565b7f416464726573733a2063616c6c20746f206e6f6e2d636f6e7472616374000000600082015250565b600061394d601d83612b23565b915061395882613917565b602082019050919050565b6000602082019050818103600083015261397c81613940565b905091905056fe416464726573733a206c6f772d6c6576656c2064656c65676174652063616c6c206661696c6564a264697066735822122053fa7f7d4632212c78c666187115f14445b73942d78e8bdd04a1c75b70d4d45b64736f6c63430008150033",
  "devdoc": {
    "events": {
      "AdminChanged(address,address)": {
        "details": "Emitted when the admin account has changed."
      },
      "BeaconUpgraded(address)": {
        "details": "Emitted when the beacon is changed."
      },
      "Initialized(uint8)": {
        "details": "Triggered when the contract has been initialized or reinitialized."
      },
      "Paused(address)": {
        "details": "Emitted when the pause is triggered by `account`."
      },
      "RoleAdminChanged(bytes32,bytes32,bytes32)": {
        "details": "Emitted when `newAdminRole` is set as ``role``'s admin role, replacing `previousAdminRole` `DEFAULT_ADMIN_ROLE` is the starting admin for all roles, despite {RoleAdminChanged} not being emitted signaling this. _Available since v3.1._"
      },
      "RoleGranted(bytes32,address,address)": {
        "details": "Emitted when `account` is granted `role`. `sender` is the account that originated the contract call, an admin role bearer except when using {AccessControl-_setupRole}."
      },
      "RoleRevoked(bytes32,address,address)": {
        "details": "Emitted when `account` is revoked `role`. `sender` is the account that originated the contract call:   - if using `revokeRole`, it is the admin role bearer   - if using `renounceRole`, it is the role bearer (i.e. `account`)"
      },
      "Unpaused(address)": {
        "details": "Emitted when the pause is lifted by `account`."
      },
      "Upgraded(address)": {
        "details": "Emitted when the implementation is upgraded."
      }
    },
    "kind": "dev",
    "methods": {
      "getRoleAdmin(bytes32)": {
        "details": "Returns the admin role that controls `role`. See {grantRole} and {revokeRole}. To change a role's admin, use {_setRoleAdmin}."
      },
      "grantRole(bytes32,address)": {
        "details": "Grants `role` to `account`. If `account` had not been already granted `role`, emits a {RoleGranted} event. Requirements: - the caller must have ``role``'s admin role. May emit a {RoleGranted} event."
      },
      "hasRole(bytes32,address)": {
        "details": "Returns `true` if `account` has been granted `role`."
      },
      "initialize(address,address,uint256,uint256,uint256,uint256,address)": {
        "details": "Use portfolio.paused() for pausable",
        "params": {
          "_bonusPeriod": "seconds",
          "_exchangeRatio": "decimal 18",
          "_maturity": "seconds",
          "_minDeposit": "decimal of source token"
        }
      },
      "paused()": {
        "details": "Returns true if the contract is paused, and false otherwise."
      },
      "proxiableUUID()": {
        "details": "Implementation of the ERC1822 {proxiableUUID} function. This returns the storage slot used by the implementation. It is used to validate the implementation's compatibility when performing an upgrade. IMPORTANT: A proxy pointing at a proxiable contract should not be considered proxiable itself, because this risks bricking a proxy that upgrades to it, by delegating to itself until out of gas. Thus it is critical that this function revert if invoked through a proxy. This is guaranteed by the `notDelegated` modifier."
      },
      "renounceRole(bytes32,address)": {
        "details": "Revokes `role` from the calling account. Roles are often managed via {grantRole} and {revokeRole}: this function's purpose is to provide a mechanism for accounts to lose their privileges if they are compromised (such as when a trusted device is misplaced). If the calling account had been revoked `role`, emits a {RoleRevoked} event. Requirements: - the caller must be `account`. May emit a {RoleRevoked} event."
      },
      "revokeRole(bytes32,address)": {
        "details": "Revokes `role` from `account`. If `account` had been granted `role`, emits a {RoleRevoked} event. Requirements: - the caller must have ``role``'s admin role. May emit a {RoleRevoked} event."
      },
      "supportsInterface(bytes4)": {
        "details": "See {IERC165-supportsInterface}."
      },
      "upgradeTo(address)": {
        "custom:oz-upgrades-unsafe-allow-reachable": "delegatecall",
        "details": "Upgrade the implementation of the proxy to `newImplementation`. Calls {_authorizeUpgrade}. Emits an {Upgraded} event."
      },
      "upgradeToAndCall(address,bytes)": {
        "custom:oz-upgrades-unsafe-allow-reachable": "delegatecall",
        "details": "Upgrade the implementation of the proxy to `newImplementation`, and subsequently execute the function call encoded in `data`. Calls {_authorizeUpgrade}. Emits an {Upgraded} event."
      }
    },
    "version": 1
  },
  "userdoc": {
    "kind": "user",
    "methods": {},
    "version": 1
  },
  "storageLayout": {
    "storage": [
      {
        "astId": 415,
        "contract": "src/Migrator.sol:Migrator",
        "label": "_initialized",
        "offset": 0,
        "slot": "0",
        "type": "t_uint8"
      },
      {
        "astId": 418,
        "contract": "src/Migrator.sol:Migrator",
        "label": "_initializing",
        "offset": 1,
        "slot": "0",
        "type": "t_bool"
      },
      {
        "astId": 1075,
        "contract": "src/Migrator.sol:Migrator",
        "label": "__gap",
        "offset": 0,
        "slot": "1",
        "type": "t_array(t_uint256)50_storage"
      },
      {
        "astId": 1348,
        "contract": "src/Migrator.sol:Migrator",
        "label": "__gap",
        "offset": 0,
        "slot": "51",
        "type": "t_array(t_uint256)50_storage"
      },
      {
        "astId": 39,
        "contract": "src/Migrator.sol:Migrator",
        "label": "_roles",
        "offset": 0,
        "slot": "101",
        "type": "t_mapping(t_bytes32,t_struct(RoleData)34_storage)"
      },
      {
        "astId": 334,
        "contract": "src/Migrator.sol:Migrator",
        "label": "__gap",
        "offset": 0,
        "slot": "102",
        "type": "t_array(t_uint256)49_storage"
      },
      {
        "astId": 598,
        "contract": "src/Migrator.sol:Migrator",
        "label": "_paused",
        "offset": 0,
        "slot": "151",
        "type": "t_bool"
      },
      {
        "astId": 703,
        "contract": "src/Migrator.sol:Migrator",
        "label": "__gap",
        "offset": 0,
        "slot": "152",
        "type": "t_array(t_uint256)49_storage"
      },
      {
        "astId": 4390,
        "contract": "src/Migrator.sol:Migrator",
        "label": "srcToken",
        "offset": 0,
        "slot": "201",
        "type": "t_contract(IERC20)3458"
      },
      {
        "astId": 4393,
        "contract": "src/Migrator.sol:Migrator",
        "label": "destToken",
        "offset": 0,
        "slot": "202",
        "type": "t_contract(IERC20)3458"
      },
      {
        "astId": 4395,
        "contract": "src/Migrator.sol:Migrator",
        "label": "exchangeRatio",
        "offset": 0,
        "slot": "203",
        "type": "t_uint256"
      },
      {
        "astId": 4397,
        "contract": "src/Migrator.sol:Migrator",
        "label": "maturity",
        "offset": 0,
        "slot": "204",
        "type": "t_uint256"
      },
      {
        "astId": 4399,
        "contract": "src/Migrator.sol:Migrator",
        "label": "bonusPeriod",
        "offset": 0,
        "slot": "205",
        "type": "t_uint256"
      },
      {
        "astId": 4401,
        "contract": "src/Migrator.sol:Migrator",
        "label": "minDeposit",
        "offset": 0,
        "slot": "206",
        "type": "t_uint256"
      },
      {
        "astId": 4408,
        "contract": "src/Migrator.sol:Migrator",
        "label": "vaults",
        "offset": 0,
        "slot": "207",
        "type": "t_mapping(t_address,t_mapping(t_uint256,t_struct(Vault)4372_storage))"
      },
      {
        "astId": 4412,
        "contract": "src/Migrator.sol:Migrator",
        "label": "nextVaultId",
        "offset": 0,
        "slot": "208",
        "type": "t_mapping(t_address,t_uint256)"
      }
    ],
    "types": {
      "t_address": {
        "encoding": "inplace",
        "label": "address",
        "numberOfBytes": "20"
      },
      "t_array(t_uint256)49_storage": {
        "base": "t_uint256",
        "encoding": "inplace",
        "label": "uint256[49]",
        "numberOfBytes": "1568"
      },
      "t_array(t_uint256)50_storage": {
        "base": "t_uint256",
        "encoding": "inplace",
        "label": "uint256[50]",
        "numberOfBytes": "1600"
      },
      "t_bool": {
        "encoding": "inplace",
        "label": "bool",
        "numberOfBytes": "1"
      },
      "t_bytes32": {
        "encoding": "inplace",
        "label": "bytes32",
        "numberOfBytes": "32"
      },
      "t_contract(IERC20)3458": {
        "encoding": "inplace",
        "label": "contract IERC20",
        "numberOfBytes": "20"
      },
      "t_mapping(t_address,t_bool)": {
        "encoding": "mapping",
        "key": "t_address",
        "label": "mapping(address => bool)",
        "numberOfBytes": "32",
        "value": "t_bool"
      },
      "t_mapping(t_address,t_mapping(t_uint256,t_struct(Vault)4372_storage))": {
        "encoding": "mapping",
        "key": "t_address",
        "label": "mapping(address => mapping(uint256 => struct IMigrator.Vault))",
        "numberOfBytes": "32",
        "value": "t_mapping(t_uint256,t_struct(Vault)4372_storage)"
      },
      "t_mapping(t_address,t_uint256)": {
        "encoding": "mapping",
        "key": "t_address",
        "label": "mapping(address => uint256)",
        "numberOfBytes": "32",
        "value": "t_uint256"
      },
      "t_mapping(t_bytes32,t_struct(RoleData)34_storage)": {
        "encoding": "mapping",
        "key": "t_bytes32",
        "label": "mapping(bytes32 => struct AccessControlUpgradeable.RoleData)",
        "numberOfBytes": "32",
        "value": "t_struct(RoleData)34_storage"
      },
      "t_mapping(t_uint256,t_struct(Vault)4372_storage)": {
        "encoding": "mapping",
        "key": "t_uint256",
        "label": "mapping(uint256 => struct IMigrator.Vault)",
        "numberOfBytes": "32",
        "value": "t_struct(Vault)4372_storage"
      },
      "t_struct(RoleData)34_storage": {
        "encoding": "inplace",
        "label": "struct AccessControlUpgradeable.RoleData",
        "members": [
          {
            "astId": 31,
            "contract": "src/Migrator.sol:Migrator",
            "label": "members",
            "offset": 0,
            "slot": "0",
            "type": "t_mapping(t_address,t_bool)"
          },
          {
            "astId": 33,
            "contract": "src/Migrator.sol:Migrator",
            "label": "adminRole",
            "offset": 0,
            "slot": "1",
            "type": "t_bytes32"
          }
        ],
        "numberOfBytes": "64"
      },
      "t_struct(Vault)4372_storage": {
        "encoding": "inplace",
        "label": "struct IMigrator.Vault",
        "members": [
          {
            "astId": 4367,
            "contract": "src/Migrator.sol:Migrator",
            "label": "amount",
            "offset": 0,
            "slot": "0",
            "type": "t_uint256"
          },
          {
            "astId": 4369,
            "contract": "src/Migrator.sol:Migrator",
            "label": "depositTs",
            "offset": 0,
            "slot": "1",
            "type": "t_uint256"
          },
          {
            "astId": 4371,
            "contract": "src/Migrator.sol:Migrator",
            "label": "active",
            "offset": 0,
            "slot": "2",
            "type": "t_bool"
          }
        ],
        "numberOfBytes": "96"
      },
      "t_uint256": {
        "encoding": "inplace",
        "label": "uint256",
        "numberOfBytes": "32"
      },
      "t_uint8": {
        "encoding": "inplace",
        "label": "uint8",
        "numberOfBytes": "1"
      }
    }
  }
}